:020000040800F2
:1000000000280020F50000081F0200087101000808
:10001000870100089D010008B301000800000000EE
:10002000000000000000000000000000C9010008FE
:100030001F02000800000000D70100081F0200088E
:1000400029020008290200082902000829020008E4
:1000500029020008290200082902000829020008D4
:1000600029020008290200082902000829020008C4
:1000700029020008290200082902000829020008B4
:1000800029020008290200082902000829020008A4
:100090002902000829020008290200082902000894
:1000A0002902000829020008290200082902000884
:1000B0002902000829020008290200082902000874
:1000C0002902000829020008290200082902000864
:1000D0002902000829020008290200082902000854
:1000E0002902000829020008290200082902000844
:1000F0002902000872B612491248086012491348D2
:10010000086013491348086013490722120408685D
:100110001043086011481249086048608860C86050
:10012000086148618861C8610E490F4A881A0F4A00
:1001300040F8042B8842FBD300F0FEFA62B6FEE7DB
:1001400018ED00E0000000001CED00E0000000FFE2
:1001500020ED00E00000FF0024ED00E0FFFFFFFFC6
:1001600080E200E00028002000020000CDCDCDCDCF
:10017000704610F1030F02D1EFF3098101E0EFF3B4
:10018000088100F083B8704610F1030F02D1EFF33D
:10019000098101E0EFF3088100F0B0B8704610F17A
:1001A000030F02D1EFF3098101E0EFF3088100F0C2
:1001B000F5B8704610F1030F02D1EFF3098101E0A9
:1001C000EFF3088100F024B9EFF309800FC800F0C5
:1001D00087F9DFF880F072B61F4A20481060204986
:1001E0000B68002B04D0EFF3098020E9F00FD860F2
:1001F0004A68002A0DD090681A4B1860D068B0E8A1
:10020000F00F80F309880A600020486062B6DFF8CA
:1002100044F062B672B6104A10481060E8E7EFF397
:100220000580103800F070BCEFF30580103800F046
:1002300085BC09490C4808607047C268D208D200E2
:10024000403A0A4B536391635FF08073D363C2609B
:1002500070470000FDFFFFFF04ED00E00000000814
:100260000C0000200000002000000010F10F00082A
:1002700012DF704708B500F0ABFE00F04FFE024BF6
:1002800000221A6008BD00BF28ED00E038B5054621
:1002900015480C4600F078FA144B1B689B0702D5F2
:1002A0001348A1690BE04DF61273A16931F8022CD5
:1002B0009A4205BF61690F480F4821F0010100F023
:1002C00063FA03350BD1A36933F8022C4DF6127390
:1002D0009A4200D162B6BDE83840FFF7CBBFBDE817
:1002E000384000F0D3B800BF405600082CED00E0C5
:1002F0004D560008705600089E56000870B51E4CFA
:10030000064623680D4613F0180F11D01B4800F065
:100310003BFA2368D90601D5194802E01A0702D52D
:10032000184800F031FA1848A96900F02DFA1AE0CF
:100330009B071CD0114800F027FA23689A0701D5C3
:10034000124802E0DB0702D5114800F01DFA114BFC
:1003500011481968AA6900F017FA033603D1BDE8FD
:100360007040FFF787BFBDE8704000F08FB8BDE870
:100370007040FFF78BBF00BF28ED00E0BC560008BF
:10038000C9560008D956000854570008EB56000813
:100390000157000834ED00E01E57000838B5154D30
:1003A0000C462B6813F4F85F1FD0134800F0ECF9EB
:1003B0002B68D90401D5114802E01A0504D510486C
:1003C000A16900F0E1F90CE013F4C06F01D00D4811
:1003D00002E0DB0505D50C480C4BA269196800F05A
:1003E000D3F9BDE8384000F051B8BDE83840FFF718
:1003F0004DBF00BF28ED00E0395700084557000801
:10040000605700087D570008A657000838ED00E047
:1004100038B5044614480D4600F0B6F9134B1B6876
:10042000980101D512480FE0D90101D511480BE020
:100430001A0301D5104807E013F4A02F01D00F488C
:1004400002E09B0302D50E4800F09EF90D48A96911
:1004500000F09AF9033403D1BDE83840FFF70ABF32
:10046000BDE8384000F012B8D657000828ED00E08B
:10047000E4570008F5570008065800081B58000804
:10048000315800085457000870470000054808B567
:1004900000F07AF94FF000504FF4007100F086F947
:1004A000FEE700BF44580008094B10B5094A1C6913
:1004B000944205D0BDE810406FF0080004F073BB13
:1004C0001861596104480549BDE8104000F05CB965
:1004D0000C00002089040008815B000852580008C5
:1004E0002DE9F04107461E460C46154600F070FD0A
:1004F0002F2F00F21781DFE817F03000EE003400F4
:100500003A00400044004A004F0057005B005F0083
:10051000660079006F006B0073007E008300890025
:100520008E00930098009F00A400A800AC00B100CA
:10053000B500B900C000CB00D200C500D900E10071
:10054000E600EB00F100F600FC00150115011501B5
:100550001501000106010C011B01204600F032FCD0
:1005600002E0204600F09EFC2860BDE8F0812046B5
:100570002946BDE8F04100F097BC204600F0C9FCD8
:10058000F2E720462946BDE8F04100F0AFBC204626
:10059000BDE8F04100F0C2BC2146BDE8F0410022B8
:1005A0004FF0FF3300F0F4BCBDE8F04100F03ABD7D
:1005B000BDE8F04100F0B0BD21462A463346BDE813
:1005C000F04100F0CFBA2146BDE8F04100F0EEBAAC
:1005D000BDE8F04100F074BFBDE8F04100F04EBF4F
:1005E00020462946BDE8F04100F08EBF2046BDE818
:1005F000F04100F03DBF2946F2B201F01FF86AE079
:1006000020462946BDE8F04101F035B82046BDE856
:10061000F04101F03AB82046BDE8F04101F026B8BB
:100620002146BDE8F04101F05BB821462A46334639
:10063000BDE8F04101F0CCB82146BDE8F04101F041
:1006400013B9284601F0A4F945E0214601F0BEF9AE
:100650008AE72146BDE8F04101F0CAB9204601F021
:1006600064F981E7204601F062F97DE721462A46D8
:10067000F3B2BDE8F04101F0CEB92146BDE8F0414A
:1006800001F0DCB920462946326801F02BFA12E06D
:1006900021462A463346BDE8F04101F02DBA2146F5
:1006A0002A463346BDE8F04101F0D6BA2046294635
:1006B000326801F04FFA3060BDE8F0812046BDE8B5
:1006C000F04101F0F3BA2046BDE8F04101F004BB6F
:1006D000284601F055FB2060BDE8F0812046BDE8CA
:1006E000F04101F086BB21462A46BDE8F04101F009
:1006F0001BBB204601F032FB36E720462946BDE809
:10070000F04100F0B5B920462946BDE8F041FFF7B9
:10071000CBBE084B20461E6929465A693346BDE8C0
:10072000F04118476FF00800BDE8F04104F03BBA13
:10073000BDE8F0810C0000200E4A4FF0005310B5C8
:100740005A600D4C0D4A00219A6020464FF4867283
:1007500004F09CFE0A4B236100F0DCF900F052F932
:1007600000F09AFF01F0D0FABDE81040054800F013
:100770004FBC00BFE10400080C000020885B0008AB
:1007800089040008A05D00080FB407B504A951F85A
:10079000040B054B01911A695B6904F035FA03B04B
:1007A0005DF804EB04B070470C0000202DE9F04127
:1007B000064600EB01080F46124831464246FFF755
:1007C000E3FF34464445A4EB060311D013F00F05B4
:1007D00003D10D482146FFF7D7FF0C4814F8011B41
:1007E000FFF7D2FF0F2DEDD10948FFF7CDFFE9E765
:1007F0003B0704D0BDE8F0410548FFF7C5BFBDE8A1
:10080000F08100BF5E58000879580008825800083F
:100810003B5B000801466A464FF000539B68034863
:100820001B68D0F8F400DB68184700BF0C000020FC
:10083000024B0146D3F8F40000F048B90C00002048
:10084000F8B506460024104BD3F8F40000F048F940
:10085000844217D22046FFF7EBFF4FF000539B680E
:1008600005461B682046DF68FFF7E2FF08300CB939
:100870006A4602E095E80C001A443146B84710B9C0
:100880000134E0E70020F8BD0C00002038B5054633
:1008900000240C4BD3F8F40000F022F984420BD270
:1008A0002046FFF7C5FF0268AA4203D243681344FB
:1008B000AB4204D80134ECE74FF0FF3038BD20469E
:1008C00038BD00BF0C0000202DE9F84388460646DD
:1008D00020B9BDE8F8430846FFF7B2BFFFF7D6FFDF
:1008E000071E02DA0020BDE8F883FFF7A1FF4FF0F2
:1008F00000539B6802461B6808305C690FB96B4661
:1009000002E092E80A000B4431464246A047002824
:100910003CD105461E4BD3F8F40000F0E1F88542C7
:10092000E0D2BD4230D02846FFF782FF4FF000539F
:100930009B6881461B682846DC68FFF779FF083012
:100940000DB96A4602E099E80C001A444146A047F6
:100950000446C8B14FF00055AB6831461B6809F139
:1009600008001B69984731460246204604F0B4FC53
:10097000AB6838461B689D69FFF75AFF314608305F
:10098000A8472046BDE8F8830135C3E7BDE8F883F2
:100990000C00002070B5054680B1FFF777FF0028F6
:1009A0000CDB4FF000539B681B689C69FFF740FF0E
:1009B00029462346BDE870400830184770BD70B521
:1009C00006460D46FFF734FF4FF00052926803468B
:1009D00012680830146A0EB96A4601E00CCB1A445A
:1009E00029462346BDE87040184708B572B6FFF7A0
:1009F00027FF62B608BD08B572B6FFF7CBFF62B637
:100A000008BD00002DE9FF41164F01AD164E2846E6
:100A1000394601F0C1FA4FF00054C6F8F450A3680B
:100A20002660DB68DFF84480D3F800C0414614221A
:100A300068460123E047A3684146DB6868461B69B6
:100A40009847009B0446C6F8F43029460C2208302B
:100A500004F042FC42F2E8632760636004B0BDE842
:100A6000F08100BF180100200C0000208858000809
:100A700070B504460E460025124BD3F8F40000F082
:100A80002FF8854212D22846FFF7D2FE01688C4229
:100A90000AD34368A2190B449A4205D86FF00500A7
:100AA000BDE8704004F07FB80135E5E772B606484E
:100AB00000F020F8214680E85000083001F06CFA80
:100AC00062B670BD0C000020000100204FF0005302
:100AD0009B680A46DB6801499B68184794580008E0
:100AE0004FF000539B680249DB68DB68184700BF82
:100AF000945800084FF000539B680249DB681B695B
:100B0000184700BF9458000801460148FFF73CBE53
:100B1000A0580008054B064A43F8042F054A9342A3
:100B2000F9D1054B4FF0FF329A6170472400002045
:100B3000C4580008D80000200C000020F8B5084C6C
:100B40004FF0005504EB8003DB69A7692E68A061B4
:100B50002B605A6899689047A7612E60F8BD00BF66
:100B60000C0000202C29F8B5054617461E4602DD6C
:100B70006FF00A0009E0890001F100540C34E269C9
:100B8000094B9A4205D06FF00500BDE8F84004F02B
:100B90000AB81020FFF729FFE06120B1002380E8A8
:100BA00088008660C560F8BDC4580008890010B58B
:100BB00001F100540C34E369DA68824205D0BDE8E3
:100BC00010406FF00B0003F0EEBF1846FFF713FF65
:100BD000014BE36110BD00BFC458000803681BB996
:100BE00001600960496070474B6003681B680B60D7
:100BF00003681B68596003681960704703685A6886
:100C00009A4217BF1B680023136003681FBF5A680E
:100C10001B685A60036818BF5B680360704738B58B
:100C2000056804468D4203D1BDE83840FFF7E6BFB2
:100C30000160FFF7E3FF256038BD0346007A48B145
:100C40005A680A605A68196852685A60521A18BF7E
:100C500001221A7270470000084B1A6812B900602E
:100C6000406008E042601A68126802601A68126800
:100C700050601B681860014B18607047140000201A
:100C80007FB50446244E443000F080FB23482146C3
:100C9000FFF7C5FFB56835B92046FFF7DDFF746083
:100CA000FFF7C7FA35E0A269AB699A4209D21C483E
:100CB000FFF7A4FF2046FFF7CFFF7460FFF7B9FAF4
:100CC0002C46174B1A6801921A6802921B6800336F
:100CD00018BF01238DF80C3001A86946FFF7ADFF5E
:100CE00098B1009BA1699A699142F5D20C4A1268A9
:100CF000934203D12046FFF7AFFF0AE01A68636012
:100D000022601A6854601C6003E005482146FFF722
:100D100065FF04B070BD00BF0C000020180000206B
:100D20001400002037B50446114D1248AB689C42B0
:100D300006D1FFF763FFAB686B60FFF77AFA02E05A
:100D40002146FFF76CFF21460B48FFF747FF684637
:100D500000F01CFB04F1440069466A4603F0A1FF61
:100D600004F13C0168460A4603F095FF03B030BD2C
:100D70000C0000201400002018000020436910B56A
:100D80009B07044613D51C3000F03CFC636923F03C
:100D9000F00203F00303022B626104D0032B06D19F
:100DA0002046FFF76DFF636923F00203636110BD06
:100DB00008B572B643699B0701D5FFF7DFFF62B63E
:100DC00008BD000070B505465820FFF70EFE04462A
:100DD000002860D00021582204F058FBEB68D901AC
:100DE00004D4286804F0FEFBB53000E0B4200330E2
:100DF00020F0030668683044FFF7F7FDA060002884
:100E000046D06A68CD21324404F040FB0023636180
:100E1000AB68A268A3616B6804F11C0013443344FF
:100E20002246E3601D4900F003FC6B682046334412
:100E3000236100F045FCA0684FF0FF33436103617C
:100E4000EB68DA0102D52B68836107E0B4302968CA
:100E500004F06AFBA36803F1B4029A61A168081D5B
:100E6000314401F099F820462969FFF7E6F90C486A
:100E70002146FFF7B3FEEB68DB070CD5636943F04F
:100E80000103636172B62046FFF7FAFE62B602E024
:100E90002046FFF7B0FD204670BD00BFB10D000831
:100EA000180000204069704710B5044672B611F072
:100EB000010F43690BD013F0030302D0022B02D0C1
:100EC00012E0FFF7DDFE636943F001030BE003F07E
:100ED0000303012B02D0032B02D005E0FFF722FF12
:100EE000636923F00103636162B610BD10B5044667
:100EF00072B683698B420AD04369816103F00303B0
:100F0000012B04D1FFF70EFF2046FFF7B9FE62B6B2
:100F100010BD80697047836898697047421C10B59E
:100F2000044630D072B6436903F00303012B07D1A6
:100F3000FFF7F8FE144B1A68A24204BF00221A60A1
:100F400063699B0712D504F11C0000F05BFB636929
:100F500003F0F003402B06D0502B07D1A06B2146A5
:100F600000F0F3FC02E0204600F0B5FB0748214604
:100F7000FFF755FE62B6A068FFF73DFD2046BDE8CD
:100F80001040FFF738BD10BD0C00002018000020F5
:100F9000F8B506460D4614461F4672B6FFF7C2FE68
:100FA000726944F0020414437461B76362B655B1C8
:100FB0002B680BB96B6833B106F11C002946BDE8FC
:100FC000F84000F0C3BAF8BD8368196070470000AC
:100FD000064A9369002BA1BF9B0003F10053243301
:100FE0005B68ACBFD8681068704700BF0C00002079
:100FF00010B5FFF7EDFF0446836804489969FFF7D1
:10100000C3FB2046BDE81040FFF788BFD458000856
:10101000034A0023536013609360D360FFF7D2BE8E
:101020000C00002010B5FFF7D3FF044672B6FFF79F
:1010300079FE2046FFF724FE62B610BD70B5044667
:1010400086B006AA002342F8183D4FF000531D68F1
:101050001A609B6880681B68E2681B6A043001A9FB
:101060009847A36823489969FFF78EFBA169224836
:10107000FFF78AFBA068043001F06AF9A1682369D0
:101080000B44984201460DD3591A1C48FFF77CFBCC
:101090001B482169FFF778FB009B4BB11948FFF70C
:1010A00073FB10E050F8042BB2F1CD3FE9D0EBE731
:1010B00015480499029AFFF767FB14480399059AAB
:1010C000019BFFF761FBE66B3C22B6FBF2F1246C5F
:1010D0004FF47A73B4FBF3F302FB11620C48FFF791
:1010E00053FB0C48FFF750FB4FF000531D6006B058
:1010F00070BD00BFFF5800080959000813590008C7
:10110000195900081E5900083659000844590008AA
:10111000535900083B5B00082DE9F0416C4892B040
:10112000FFF732FB6B48FFF72FFB72B66A4B0025C7
:101130001A6805921A6806921B68003318BF0123CB
:101140008DF81C3005A801A9FFF777FD20B10198A3
:10115000FFF774FF0135F5E7604B1A6805921A68CE
:1011600006921B68003318BF01238DF81C3005A8B8
:1011700001A9FFF762FD044620B10198FFF75EFF69
:101180000135F4E729465648FFF7FEFA5148FFF7C4
:10119000FBFA12AB4FF0005243F8404D17680DA810
:1011A00013602146142204F071F9264625464D4B62
:1011B000D3F8F400FFF794FC854240D22846FFF7AD
:1011C00037FB804608A92846FFF7F9FB4648D8F8C0
:1011D0000010FFF7D9FA4548D8F80410FFF7D4FA01
:1011E000029B23B14248FFF7CFFA01240AE04148AD
:1011F0000B99099AFFF7C8FA3F480A990C9A089B7D
:10120000FFF7C2FA3D48FFF7BFFAD8F80430109A4A
:101210001E440B9B0135134410930E9A099B1344F3
:101220000E930F9A0A9B13440F930D9A089B134435
:101230000D93119A0C9B934288BF1193B7E7304BE3
:1012400030481968FFF7A0FA2F490B680A1DB3F15F
:10125000CD3F03D12D4B11469A42F6D1C1F1005139
:101260002B4801F52051FFF78FFA20483146FFF750
:101270008BFA1CB11E48FFF787FA0AE01D48109947
:101280000E9AFFF781FA1C480F99119A0D9BFFF7F0
:101290007BFA03A800F07AF8039A3C23B2FBF3F13F
:1012A000049C03FB11224FF47A73B4FBF3F3194847
:1012B000FFF76AFA1148FFF767FA4FF000531F6013
:1012C0000448FFF761FA62B612B0BDE8F08100BFD2
:1012D00061590008AC5900081400002018000020D3
:1012E000F75900080C0000200C5A00081959000892
:1012F0001E5900082B5A0008375A00083B5B0008AB
:1013000040580008455A0008002600200028002008
:10131000135900085359000803685A689A4217BFC6
:101320001B680023136003681FBF5A681B685A605C
:10133000036818BF5B680360704700000148FFF74F
:1013400023BA00BF575A00080148FFF71DBA00BF73
:10135000785A000808B50248FFF716FA002008BDC1
:10136000985A00087FB5C3690490019390F824301F
:1013700001A91B0443F002030293036A6FF0020009
:10138000039300F0ADF907B05DF804FB38B5094BE5
:101390000546D3F8D420D3F8D8400260D3F8E4202F
:1013A000D3F8E8009047044B2044984294BF68600B
:1013B0006B6038BD0C0000203F420F001FB50023BA
:1013C000019372B6284CD4F8EC30002B40D002A820
:1013D000FFF7DCFFD4F8EC0002A9083003F055FC5D
:1013E000002813DBD4F8EC40002323761F48FFF7D6
:1013F00093FF019B1BB9019464602460E2E71A68C3
:10140000636022601A6854601C60DBE7D4F8EC303B
:101410009A68029B9A421BD1D4F8E430D4F8E800D1
:101420009847D4F8D8301844C4F8D800D4F8E0303D
:10143000D4F8E8009847D4F8EC30D4F8D800DB684A
:10144000D4F8E810181AC4F8F000D4F8DC30984743
:1014500062B6019C34B101A8FFF75EFF23696069A1
:101460009847F6E704B010BD0C000020F8000020FB
:1014700008B572B6FFF78AFF62B608BD38B572B616
:101480000D4C0025D4F8D430D4F8E8000133C4F86A
:10149000D430C4F8F050D4F8E0309847D4F8DC30B9
:1014A0000648D4F8E8109847C4F8D85062B6BDE8AA
:1014B0003840FFF783BF00BF0C00002080841E006F
:1014C00010B50E4CD4F8F03013B90D48FFF75CF9A5
:1014D00072B6D4F8F020D4F8D8300A481344C4F8CF
:1014E000D8300023C4F8F030D4F8E810D4F8DC3059
:1014F000984762B6BDE81040FFF760BF0C000020BF
:10150000BB5A000880841E000D4B30B50D4AD3F83D
:10151000DC5095420ED1026845688068C3F8E050FF
:10152000C3F8E400C3F8DC20C3F8E8100648BDE8BF
:10153000304010476FF00800BDE8304003F033BB87
:101540000C0000203D13000880841E002DE9F743A5
:101550000D4604466846FFF78BFF2B6804F108062A
:10156000A3606B686846E3603146324603F093FB44
:1015700072B6234B1F683D4617F1000918BF4FF0A4
:101580000109B9F1000F23D0D5F8048005F1080056
:10159000B8EB0709314618BF4FF0010903F075FB9E
:1015A000002813DA164B1A686560954208D11A684C
:1015B000126822601A68126854601A68146016E093
:1015C0002B6823602B685C602C6011E04546D8E7EF
:1015D0000B4B1A681AB91C602460646008E06260F2
:1015E0001A68126822601A68126854601B681C60CE
:1015F0000123237662B6FFF7E1FE03B0BDE8F08376
:10160000F8000020037E70B5054673B1074C2668CC
:10161000864203D12046FFF77FFE04E0206020468B
:10162000FFF77AFE266000232B7670BDF8000020BD
:1016300000230161426103767047000070B50646E1
:1016400028200D461446FFF7D0F948B1064BC66175
:1016500003610023056280F824404061037670BD79
:101660004FF0FF3070BD00BF65130008431C01D070
:10167000FFF7C1B9704772B662B6037E1BB16FF057
:10168000050003F090BAFFF761BF08B572B6FFF727
:10169000B9FF62B608BD0000054B064AC3F8DC205E
:1016A000054AC3F8E020054AC3F8E420704700BFAC
:1016B0000C0000203D1300084913000855130008D2
:1016C000836800221A62DA6107225A624FF0FF3300
:1016D000C364036570474FF0FF33C3647047000075
:1016E000F7B50C4663680A6803F04043B3F1804FD6
:1016F0000646C96803D100F061FB00285BD025686D
:1017000072B6EB6CB34201D0023311D12B6D62681B
:10171000934201D001330BD16B6DA268934201D08B
:10172000023305D14FF0FF33EB642846FFF726FB69
:10173000AB68DA69586A511C814234BF0F460027F2
:101740001D6AAF4216BF39464FF0FF32D96162B60B
:10175000002A0DDB14214A43606828339918486039
:10176000A0688860E068C860206908619E5022E037
:101770006FF00C0003F017FA2068FFF7CCFB01466E
:101780000E48FFF701F80E48FEF7FEFFF31C03D1E9
:101790000C48FEF7F9FF06E03046FFF7BCFB0146B8
:1017A0000948FEF7F1FF2369211D009307480EC980
:1017B000FEF7EAFFFEE703B0F0BD00BF1B5B0008C9
:1017C0003D5B0008465B0008815B00084E5B00083B
:1017D0008142F8B504460D4617461E460BD1FFF769
:1017E0009AFB01461F48FEF7CFFFBDE8F8406FF0B7
:1017F000100003F0D8B9002140224FF0FF33FFF76B
:10180000C7FB72B6A268D2F81CE0136A734524D0F5
:101810001421594302F1280000EB010C4158A94260
:1018200001D0A91C11D1DCF80410B94201D0781CF8
:101830000BD1DCF80810B14205D1002B0DDB20469E
:10184000FFF79CFA0CE0B11CF7D0506A591C81429A
:101850004FF0000338BF0B46D8E7E564276566659F
:1018600062B6F8BD735B000870B50C460546FFF71D
:1018700037FF626828462168A36822F40042BDE869
:101880007040FFF7A5BF03685A689A4217BF1B68EC
:101890000023136003681FBF5A681B685A600368FF
:1018A00018BF5B680360704770B506460D46336825
:1018B0008BB12C684FF0FF33A36072B62846FFF758
:1018C000E2FFE068FFF75AFA62B66FF00901E068DC
:1018D000FFF77AFBEBE770BD72B690E80C0093421D
:1018E00089BF8068D01A8018C01A62B6704710B5D8
:1018F00086B00446FFF7F0FFA8B1A3695A1C12D0C6
:10190000019394F8203005901B0443F001030293E7
:10191000E3696FF0020003934FF0FF33A36101A965
:101920000494FFF7DDFE06B010BDFFF7D5BF72B619
:1019300041680368994297BF826801F1FF308818B7
:1019400000F1FF30C01A62B67047037C70B5012BFE
:10195000044602D0022B0BD017E085686E6905F1B2
:101960001400A6420AD06C61FFF78DFF6E610CE097
:1019700085682E6905F11000A64202D1FFF783FFAA
:1019800003E02C61FFF77FFF2E610023237470BDFD
:1019900038B505462420FFF728F8044698B12846B4
:1019A000FFF723F8E06018B92046FFF724F80AE0B3
:1019B00000234FF0FF3263602360A560A261636182
:1019C0002361204638BD4FF0FF3038BD38B54B1C81
:1019D00005460C4602D14FF0FF3038BD1C20FFF702
:1019E00004F80028F7D00023C5608460037438BD74
:1019F0004B1C0FD08B68013302D16FF0090004E05B
:101A0000CB68834203D06FF00B0003F0CCB80846DC
:101A1000FEF7F1BF704710B58C69013405D0BDE801
:101A200010406FF00B0003F0BEB88861CA6181F806
:101A300020300846BDE81040FFF759BF8B6983424C
:101A400003D06FF00B0003F0AEB84FF0FF338B61A3
:101A500070472DE9F04107460E46904672B614468F
:101A6000002C38D0BB685D69002D34D0AA69686944
:101A7000A24231460ED803F02FFCB868AB6914308F
:101A8000E41A1E44FFF7FFFEE868FFF777F900232A
:101A90002B74E5E7224603F01FFC6B6926442344C0
:101AA0006B61AB691B1BAB61002414E0BA6815685D
:101AB00091686B1C8B4234BF9E464FF0000E5068FD
:101AC00086450AD08B4228BF00231360D06816F8E1
:101AD000013B013C4355002CE8D162B6C4EB080041
:101AE000BDE8F08138B50546FFF7B3FF0446A868A6
:101AF000FFF7FDFE204638BDF8B50C4607461646F2
:101B0000084611461A461D46FFF7A3FF2D1AA56188
:101B1000DDB1304402236061237438460021502235
:101B20002346FFF735FA72B6A3681A691AB91C6121
:101B30002460646008E062601A69126822601A69B1
:101B4000126854601B691C6062B6A068BDE8F8406A
:101B5000FFF7CDBE2DE9F8430646174672B6144688
:101B6000884644B3B36858681A68824223D09D6897
:101B7000421CAA4228BF0022D3F80CE05A601EF88B
:101B80000030013C01F8013BEAE7B3681D69FDB193
:101B9000AA694046A242696910D803F09DFBB0686B
:101BA000AB691030E41A9844FFF76DFEE868FFF760
:101BB000E5F800232B74002CE7D109E0224603F05E
:101BC0008BFBAB6968691B1B2044AB616861002417
:101BD000BC423DD2B26853681568AB429CBF926864
:101BE0009B18013B5D1BB368D3F81080B8F1000F60
:101BF0002ED06DB3D8F81830D3B1B368186899688F
:101C0000421C8A4228BF0022D3F80CE01A60D8F8A0
:101C10001430013D03F10102C8F814201B780EF8BE
:101C20000030D8F8183003F1FF33C8F81830E1D18C
:101C3000D8F81890B9F1000FD5D1B0681030FFF77F
:101C400022FED8F80C00FFF799F888F81090CAE740
:101C500062B6381BBDE8F883F8B50C460746164651
:101C6000084611461A461D46FFF774FF2D1AA56156
:101C7000DDB13044012360612374384600215022D5
:101C80002346FFF785F972B6A3685A691AB95C61F1
:101C90002460646008E062605A69126822605A69D0
:101CA000126854605B691C6062B6F8BD38B54FF0CD
:101CB000FF330446836172B64368036025694DB102
:101CC000002304F110002B74FFF7DDFDE868FFF737
:101CD00055F8F3E762B638BD38B5431C044612D058
:101CE00000F1100528462946FFF7DEFD284604F1DD
:101CF0001401FFF7D9FDE068FEF77DFE2046BDE840
:101D00003840FEF778BE38BD064B4FF0FF32C3F8BF
:101D1000F820C3F8FC20C3F80021C3F80421C3F85D
:101D2000082170470C000020042912DC890001F111
:101D300000510C31D1F8F830B3F1FF3F03D08342AA
:101D400004D1531C02D1C1F8F82070476FF00B008A
:101D500001E06FF00A0002F026BF0000042808B579
:101D600004DC064B3E3053F8200008BD6FF00A003B
:101D700002F019FF4FF0FF3008BD00BF0C0000203B
:101D800070B50646FFF724F904461820FEF72DFE2D
:101D9000054688B1002314360461C46003753046DB
:101DA000FEF723FE0446A86020B92846FEF723FE6E
:101DB000204670BD05604660A86870BD38B50C68E7
:101DC0002369984205D06FF00B0002F0ECFE00256D
:101DD0000DE0257D4DB1E3689A4206D1A068FEF77B
:101DE0000AFE2046FEF707FE01E022610125284693
:101DF00038BD38B500B30468E568FFF7E9F88542F7
:101E000002D06FF00B000BE072B6E36822699A42D1
:101E10001ABF01232375002362B62BB16FF01400A3
:101E2000BDE8384002F0BFBEA068FEF7E4FD2046E2
:101E3000BDE83840FEF7DFBD38BD00000B6810B5C7
:101E400004684068234413604B680344536053683C
:101E500005498B4207D91168A3F57423013111603C
:101E6000A3F51073F2E710BD3F420F00034AB0FB29
:101E7000F2F30B6002FB13034B60704740420F000C
:101E80004FF47A73B0FBF3F20A6003FB1202534380
:101E90004B60704740F66202036893429DBF426800
:101EA000024800FB03200248704700BF40420F0079
:101EB000805CE97F0368064A93429FBF40684FF405
:101EC0007A72B0FBF2F002FB030088BF0148704752
:101ED0009AC4200090F9FF7F0A6803689A420CD8E0
:101EE00008D14A6843689A4207D814BF4FF0FF30C0
:101EF000002070474FF0FF3070470120704770B5E9
:101F000005460E461446FFF7E7FF002814DD336848
:101F10002A6869689A1A736822608B423BBF03F58E
:101F2000742303F510735B1A5B1A37BF02F1FF329B
:101F300063606360226070BD00236360236070BDD6
:101F400013B50446684602F0BEFE204669466A465E
:101F5000FFF7D5FF6846FFF79DFF02B010BD13B530
:101F60000446684602F0AFFE204669466A46FFF71F
:101F7000C6FF6846FFF79EFF02B010BD37B50C469E
:101F80000546684602F09FFE284669462246FFF74E
:101F9000B6FF204603B030BD033121F0030101F14B
:101FA00008034360836000230B6042684FF0CD312B
:101FB00042F8041C52F8081C21B14FF0DC3241F801
:101FC0000C2C02E04FF0EE3111600360704731B12C
:101FD00051F8083C6FF00B00401A1844704708464F
:101FE000704730B500296DD00368002223B19942B3
:101FF00002D91A461B68F9E78B420BD051F8084CFE
:102000008C4207D90BB19C4204D84AB152F8084C13
:102010008C4205D9BDE830406FF0CB0002F0C3BD63
:102020000B6032B111604BB351F8085C9D4224D172
:1020300003E00160002BF7D130BD53F8080C0024F9
:1020400041F8044C43F80C4C43F8044C10B140F8F0
:102050000C4C00E0186041F8080C2B684FF0CD34B0
:102060000B602B6841F8044C20B14FF0DC3440F891
:102070000C4C02E04FF0EE3008601AB352F8080C36
:10208000A2F1080588421DD151F8080C002442F83D
:10209000044C41F80C4C41F8044C10B140F80C4C85
:1020A00000E00860286013604FF0CD3342F8043C34
:1020B0002B6823B14FF0DC3243F80C2C30BD4FF0CD
:1020C000EE33136030BD836870B553F8086C054675
:1020D00016B16FF0CB0008E0C81800F10C049C4268
:1020E00001D3A24205D86FF0C80002F05CFD0020C9
:1020F00070BD43F8084C43F8046C1E604660A96844
:102100004FF0CD3351F8082C41F8043C22B14FF088
:10211000DC3642F80C6C02E04FF0EE320A6044F814
:10212000043C4FF0EE33C3602846FFF75AFFAC6023
:10213000012070BD2DE9F041CC1C0546904624F0ED
:10214000030431B18368DC4206D36FF0C80002F0AB
:102150002AFD0020BDE8F081022628680021002821
:1021600040D050F8082C04F10C0303449342A0F132
:10217000080734D803F11004944228D8002440F80A
:10218000044C12B142F80C4C00E0026043F8082CF9
:102190003B6002681A6003603C684FF0CD3240F843
:1021A000042C24B14FF0DC3644F80C6C02E04FF004
:1021B000EE34046043F8042C53F8082C22B14FF09D
:1021C000DC3342F80C3C02E04FF0EE321A60036858
:1021D00011B10B60BDE8F0812B60BDE8F0810146D4
:1021E0000068BCE7284621464246FFF76CFF0028FE
:1021F000AFD0012EADD00126AFE72DE9F74FD41CAB
:10220000074691469A4624F003040D4631B921460B
:102210001A4603B0BDE8F04FFFF78CBFA1F1080BE1
:1022200051F8086C002C00F08A80FFF7D0FE804641
:1022300002233A68002182B3B2422ED82AD1DBF8B9
:102240000000002245F8042C10B140F80C2C00E0EE
:102250002A6046F8042C56F8082C1AB1002042F8DF
:102260000C0C00E03260CBF80020326809B10A6043
:1022700000E03A60DBF800604FF0CD3245F8042C06
:1022800026B14FF0DC3246F80C2C06E04FF0EE326F
:102290002A6002E011461268CDE7444505D82B19A3
:1022A00003F10C01B14211D93CE0BA6801939642A6
:1022B000F5D13846C8EB04015246FFF704FF002869
:1022C000EDD0019B012BEAD00123B2E7721A0F2A4D
:1022D00038D955F8082C002045F8040C12B142F802
:1022E0000C0C00E02A604FF0CD325E6045F8081C0F
:1022F00045F8042C19B14FF0DC30285102E04FF0C2
:10230000EE30286041F8042C5A6822B14FF0DC33DB
:1023100042F80C3C02E04FF0EE32DA603846FFF74C
:1023200060FE0FE0384649465246FFF703FF044679
:1023300050B12946424602F0CFFF38462946FFF702
:1023400050FE01E0284600E0204603B0BDE8F08FD3
:10235000806808307047426838B54AB185683DB139
:10236000AA4205D80368AB4202D855F8084C14B10C
:102370006FF0CB0010E0A94202D26FF0C8000BE072
:1023800020469042F4D8AA42F2D852F8041CB1F187
:10239000CD3F05D06FF0CC0002F005FC002038BD29
:1023A00052F8081C39B1104651F80C2CB2F1DC3F40
:1023B000F0D10A46E5E71268B2F1EE3FEAD1BBB1CF
:1023C0009942D5D8AB42D3D853F8042CB2F1CD3FC3
:1023D000E0D153F8082C22B152F80C2CB2F1DC3FBA
:1023E00002E01A68B2F1EE3FD4D119461B68E6E765
:1023F000012038BD70B506461546084614220C4625
:10240000002103F043F829463046FFF7A4FFB168E6
:1024100020B901F114039D4220D270BD96E8050059
:102420008A42F6D052F8086C6FF00B039B1A824276
:1024300033440BD120680130206020698342A068BA
:1024400088BF23610344A360106805E0626801321D
:102450006260E2681344E3603246E1E76FF00F0325
:102460005B1A1D4423680133236023699D42A368DE
:1024700088BF25611D44A56070BD000070B504468D
:102480000D4616460A2C05DD07480A213246A847A4
:102490000A3CF7E7002C06DD214632462B46BDE814
:1024A00070400148184770BDDB5B000870B50446FA
:1024B0000D4616460A2C05DD07480A213246A84774
:1024C0000A3CF7E7002C06DD214632462B46BDE8E4
:1024D00070400148184770BDC45B000838B503461A
:1024E0000C46154610681946224602F0F5FE2B6888
:1024F0001C442C6038BD024630B50023141A8C42AF
:102500000ADA12F8014BA4F13005092D04D80A2586
:1025100005FB0343303BF1E7184630BDF8B5C1B1C8
:1025200000F10B060024B1FBF2F502FB1511C9B254
:10253000092905D9002B14BF37275727394400E054
:102540003031C9B206F8011D01342946002DEAD107
:1025500002E0302383720124C4F10B0101442246BE
:1025600002F030FF2046F8BD42F20E72904238B5BC
:1025700003460C4605D9830A934204D99B0A0225D7
:1025800002E0002500E00125194620460A2200232A
:10259000FFF7C4FF35B1054A431CAA5C225442220E
:1025A000E25402300023235438BD00BFCD5B000845
:1025B0002DE9F04F99460023824690460C461F466F
:1025C0001D468BB003931AF80730002B00F0AF8143
:1025D000252B07F1010140F0A4811AF801300E46C5
:1025E000252B07D10AEB0500491B4A46C047BD1CF5
:1025F000019499E1AF4204D90AEB0500791B4A46E0
:10260000C0474FF0010B1AF806300AEB0600002B0A
:1026100000F095811BF0010F1DD02B2B11D006D897
:10262000202B11D0232B13D14BF0100B0EE02D2BB0
:1026300004D0302B0CD14BF0200B07E04BF0020BF9
:1026400004E04BF0040B01E04BF0080B0136DAE735
:102650000BF0FE0BD7E72A2B5F4601D0024604E0C1
:102660002368751C029304340FE0CAEB020512F8CC
:10267000013B303B092BF8D9B54204D9A91BFFF720
:102680003AFF029001E0002302931AF805302E2B46
:102690001AD1691C1AF801300AEB01002A2B01D06B
:1026A0000D4603E02668023504340EE01AF80530C2
:1026B000303B092B01D80135F8E78D4204D9691A5E
:1026C000FFF719FF064600E001261AF805206B1CEB
:1026D000682A03D06C2A08BF1D4602E01D464BF055
:1026E00040070AEB050304931AF80530692B2DD037
:1026F0000AD8622B00F09C8001D8582B0DE0632B88
:102700000DD0642B22D0A6E0732B0FD002D86F2BF4
:1027100072D0A0E0752B3FD0782B52D09BE0231DC8
:102720000193236801248DF81B3098E0231D019349
:1027300023681846039302F055FF012E044640F229
:102740008E80864280F08B80344688E0B90603D5BF
:10275000029B9E4238BF1E46231D24687A0648BF4E
:1027600024B2002C01930BDA614207A80A2200234D
:10277000FFF7D4FE67F07F078346441CFFB264E096
:1027800062D0214607A80A220023FFF7C7FE17F0F0
:102790000C0F0446834646E0BB0603D5029B9E42CF
:1027A00038BF1E462168780604F1040348BF89B289
:1027B000019300293AD007A80A220023FFF7AEFEB2
:1027C00041E0B90603D5029A964238BF1646221D4B
:1027D000216801927A0648BF89B239B3A3F158043F
:1027E0006342634107A81022FFF798FEFB060446E8
:1027F00083462AD5023428E0BB0603D5029B9E42BD
:1028000038BF1E462168780604F1040348BF89B228
:10281000019359B107A808220023FFF77FFE044661
:10282000834617F0100F10D001340EE00C460BE079
:1028300020687A0604F1040348BF80B2019310B106
:1028400007A9FFF791FE0446A346B34509D2CBEB97
:102850000404344405E001940024A34601E04FF051
:10286000000B07F0020202F0FF0305932AB9029B56
:102870004146181B4A46FFF701FE049B01351A78B2
:10288000692A1CD009D8622A19D001D8582A0DE02B
:10289000632A0DD0642A12D03AE0732A0CD002D8F1
:1028A0006F2A20D034E0752A09D0782A16D02FE07C
:1028B0000DF11B00012129E00398214626E03B068B
:1028C00001D5214815E0BBF1000F15D0780701D5DF
:1028D0001E480EE039070FD51D480AE0FA060BD551
:1028E0001C48022106E0BBF1000F05D0FB0603D512
:1028F000194801214A46C047B34505D2CBEB060033
:1029000041464A46FFF7D2FD594607A84A46C04706
:10291000059B4BB1029B4146181B4A46FFF7AEFD93
:1029200002E00F46019400E02F46019C4BE6AF42C7
:1029300007D90AEB0500791B4A46C04701E05F460C
:102940008CE60BB0BDE8F08FD25B0008D45B0008CA
:10295000295A0008D65B0008D95B000807B502AB0E
:1029600043F8040D08461146044AFFF721FE019B77
:1029700000221A7003B05DF804FB00BFDD240008DC
:10298000014A0023FFF714BEED29000807B54FF0F8
:1029900000531B680DF107015869012202F09DFAEE
:1029A0009DF8070003B05DF804FB70B505460E46C0
:1029B0000446FFF7EBFF0A28207005D0631B721E48
:1029C000934201DA0134F4E700232370284670BDF6
:1029D00007B502A901F8010D4FF000531B68012251
:1029E000186902F067FA03B05DF804FB03460A4673
:1029F0004FF0005109680869194602F05BBA38B512
:102A00004FF000531B6804461D6902F0EBFD2146A0
:102A100002462846BDE8384002F04CBA70B506467A
:102A200003FB02F01D460C300B68144698473060DB
:102A300018B1002345600360846070BD10B5044682
:102A40008B68006898470023236010BD00B10068C0
:102A50007047006808B100230360704710B5044652
:102A6000006848B18268036853434A6803F10C0167
:102A7000904703682060436010BD08B560B10368EB
:102A80009A4205D36FF00A0002F08DF8002008BDCD
:102A9000836803FB02000C3008BD38B504460068AB
:102AA0000D46C8B190E80C00934202F1010201D931
:102AB000026009E081680133594380E80C000C3161
:102AC0006B68984740B1206020682946BDE83840CF
:102AD0000268013AFFF7D1BF002038BDF8B54FF0CA
:102AE00000539B680E46DB6812491B690546174672
:102AF0009847F0B129680B689F4205D36FF00A0030
:102B000002F051F82868F8BD8A68013B07FB0224EF
:102B100004F10C00A41ADB1B0C345A430844214472
:102B200002F050FC286831463A46BDE8F840FFF70D
:102B3000A4BFF8BD945D0008036870B50546D3B125
:102B40001C68A24205D36FF00A0002F02CF82B6833
:102B500011E09E68013C06FB02F101F10C003144DA
:102B60000C31A21A18441944724302F02BFC2B6852
:102B70001A68013A1A60184670BD10B5043204464E
:102B8000FFF74CFF18B120466FF07F43636010BD24
:102B9000FFF754BF08B5120A0068FFF76EFF043054
:102BA00008BD70B506460D46002430682946FFF77B
:102BB0004DFF844213D2224630682946FFF75DFF5D
:102BC00002686FF07F43B3EB122F06D030682946BE
:102BD0002246FFF752FF006870BD0134E5E74FF071
:102BE000FF3070BD70B506460D46120A541C3068A1
:102BF0002946FFF72BFF844213D22246306829462C
:102C0000FFF73BFF02686FF07F43B3EB122F06D054
:102C1000306829462246FFF730FF006870BD013456
:102C2000E5E74FF0FF3070BD70B5054600680E4611
:102C3000FFF70CFF04466A686FF07F439A4207D0A3
:102C400028683146FFF719FF0268013C120AF3E7D2
:102C5000204670BDF8B505460068140A0F461646B2
:102C6000FFF7F4FE844202D36FF00A0019E0224617
:102C700028683946FFF701FF02686FF07F43B3EB26
:102C8000122F02D16FF004000BE02246286839466B
:102C9000FFF7F3FE0268724012F0FF0F05D06FF0ED
:102CA000070001F080FF0020F8BD0120F8BDF8B555
:102CB00044686FF07F439C4205460E4615D1FFF7EE
:102CC000ECFE38B32C6831462046FFF7BFFE314694
:102CD000421E2046FFF7D1FE314607462868FFF71F
:102CE000B5FE013804023C6016E022460068FFF79A
:102CF000C4FE0078314640EA04246A682868FFF779
:102D0000BCFE0460314628686A68FFF7B6FE436877
:102D10006B6001E04FF0FF342046F8BDF8B5054682
:102D20000F461446FFF796FF88B1260A3946324609
:102D30002868FFF7A2FE6B683946436032466E6032
:102D40002868FFF79AFE013464F0FF040460F8BDC0
:102D5000F0B50C0950F824502E1D40F8246045B9F8
:102D60002848294E50F82470F5690120B8402843BE
:102D7000F0612648032550F8240001F00F04660096
:102D8000B540ED43076802F0030E2F400760076867
:102D90000EFA06FE4EEA0707076047684FF0010E7D
:102DA0000EFA04FE27EA0E0747604768C2F3800E5A
:102DB0000EFA04FE4EEA070747608768C2F3C10EA9
:102DC0002F40876087680EFA06FE4EEA0707876085
:102DD000C768C2F341123D40C560C568B2402A438E
:102DE00001F00701C260E410203089000F2202FACE
:102DF00001F550F824208B4022EA0502134340F8E5
:102E00002430F0BD785C000800380240885C00087F
:102E100070B501F00F0505F00C0303F1804303F5D5
:102E200080339C6801F003060F20B04024EA0000C4
:102E3000986098680909B140014399600121A9404F
:102E4000CD430C4B9C682C409C60D8682840D860CF
:102E5000D00742BF986808439860920742BFDA687B
:102E60000A43DA601A680A431A605A6811435960C3
:102E700070BD00BF00040140F0B501F00F044FEA3F
:102E8000440E032202FA0EF2D2431F4B0E0953F8EE
:102E9000263001F007011D68890015401D601D687E
:102EA000203343F8205C53F8185C154043F8185C55
:102EB00053F8187C012505FA0EFE4EEA070743F881
:102EC000187C53F8147C3A4043F8142C53F8142C13
:102ED00043F8142CE2100F248C4053F8221021EAFE
:102EE000040143F8221050F82630043B40F8263005
:102EF00043B90649064A51F82610D3698D4023EAA2
:102F00000505D561F0BD00BF885C0008785C00084D
:102F10000038024001F00F0101228A40D243074BE2
:102F2000186810401860596811405960996811403C
:102F30009960D9680A40DA60704700BF0004014018
:102F40000021102202F0A2BA4A680B46C2F30E0218
:102F5000092A11D006D8082A15D1DA68097A1B7C0B
:102F6000FFF7F6BEB2F5807F09D040F201118A4228
:102F700009D1197AFFF7CEBF097AFFF77DBF097A29
:102F8000DA68FFF745BF6FF0010001F00CBE0329BE
:102F90000DD8DFE801F002040608192104E0182129
:102FA00002E0382100E05821002201F0C5BF70473F
:102FB000044B020953F8222000F00F000123834044
:102FC00093617047885C0008054B020900F00F0010
:102FD00053F822201030012383409361704700BFD3
:102FE000885C0008074B5A68D106FBD41A6800F0C9
:102FF000030022F4C05242EAC02018605A68D20688
:10300000FCD47047007000400C498B688A68C3F399
:1030100080430333C2F3C242886803FA02F28B682A
:10302000074913F4803F074B18BF0B465343C0F3C7
:1030300081500130B3FBF0F0704700BF0038024010
:10304000001BB7000024F400064B1A68D10306D415
:103050001A6842F480321A601A689203FCD5012083
:10306000704700BF0038024038B528B9FFF7ECFFC1
:1030700080F00100C0B21BE0032819D1FFF7E4FF84
:103080000546474C0120A36823F47C03A360A36892
:1030900043F44023A360A36843F44C03A360FFF709
:1030A000A1FF23469DB1A36843F48033A3601AE0D7
:1030B00028B3022803BF3A4B4FF480305B6839488D
:1030C00009BFC3F3423301229840002219E022686D
:1030D00042F0010222601968314A8907FBD59368E2
:1030E00023F4803393602E4B1A6842F080721A608A
:1030F0001A689201FCD5FFF787FF032201E02A48F6
:103100000222274B9968002321F46051274C20FAB2
:1031100003F5A54203D90133052BF7D100E003B134
:1031200003331F4C41EAC321A160A16821F4E0618F
:1031300041EA0323A3601E4B196841F004011960A2
:10314000196841F0020119601A490968C1F3C121E7
:10315000032901D1184906E0022901D1174902E0EB
:10316000012906D10F49884203D9196841F00101AC
:1031700002E0196821F001011960BFF34F8FBFF31E
:103180005F8F00BF00BF064B996811439960996833
:10319000C1F381019142FAD100BF00BF38BD00BF29
:1031A000003802400024F400001BB7000048E8018A
:1031B000003C02400070004080841E0000127A0033
:1031C0002DE9F041054672B60B4C0023676A636235
:1031D000266A2362D4F81C80E36100BF00BF084662
:1031E000FFF742FFC4F81C8028466762266200F0A1
:1031F0000FFA62B6BDE8F081003802400E4B9A68C3
:1032000002F00C020C2A13D8DFE802F009121212A5
:1032100014121212071212121000084870475B684D
:103220004FF48030C3F3423398407047FFF7ECBE51
:10323000002070470248704700380240001BB7006A
:103240000024F4000A4B10B59A68120609D59B6851
:103250000124C3F3021301339C401F2C02DD6400E0
:1032600000E00124FFF7CAFF90FBF4F010BD00BF9F
:1032700000380240084B10B59A68920441BF9B6821
:103280000124C3F3C12301334CBF9C400124FFF749
:10329000D9FF90FBF4F010BD00380240084B10B588
:1032A0009A68520541BF9B680124C3F3012301338F
:1032B0004CBF9C400124FFF7C5FF90FBF4F010BD0C
:1032C0000038024008B5032813D8DFE800F00206F2
:1032D0000E0ABDE80840FFF791BFBDE80840FFF7C0
:1032E000B1BFBDE80840FFF7C5BFBDE80840FFF724
:1032F000D5BF6FF0060001F056FC002008BD0000AD
:103300000A4B00225A621A62DA619A605A6A0320F2
:1033100042F080525A621A6A42F001021A62044A6A
:10332000536823F4E0635360FFF79EBE0038024009
:10333000007000404B6810B5C3F30E03B3F5807FF7
:103340000C4608D040F20112934231D18868FFF751
:10335000B9FFE06010BD0B7A012B18D012D3042BFB
:1033600026D172B6154A136943F004031361144B56
:103370001A6842F002021A601A6842F004021A60E7
:1033800030BF10BD0321BDE81040FFF719BF022177
:10339000FFF716FFBDE810400A4B03201A6822F021
:1033A00080721A601A6822F480321A60FFF71ABE1F
:1033B0006FF00100BDE8104001F0F5BB00ED00E04A
:1033C0000070004000380240CB0B08BF0123B1FB66
:1033D000F3F1012905D9B1F1011F28BF4FF4803164
:1033E00000E00221034A013B52F820200139936298
:1033F000D1627047985C00084FF08042936A006980
:103400000133B3FBF0F0526A02FB000070474FF04B
:103410008042136923F00103136101F06DBC0000C9
:10342000034A136923F00103136101F059BC00BF83
:1034300000100040F0B50F46054687B00D4C012343
:1034400001A903930294FFF775FF0B4B284653F82D
:1034500027200A4B01A99A420CBF03230223049E92
:1034600002940393FFF766FF0498864218BF40005A
:1034700007B0F0BD01810300BC5C000820380240A9
:10348000264B30B553F82100254B53F8214001233A
:10349000A340046823430360224B53F8213018688B
:1034A00040F004001860900742BF186840F0080020
:1034B000186012F004041EBFD86840F00100D86004
:1034C000D50342BFD86840F48070D860D00742BFAF
:1034D000986840F480409860F4B1134B012013F8D1
:1034E0002110C2F3072201F01F044BB2A0400F4C81
:1034F0005D09002B44F825004FEA021205DA0C4B57
:1035000001F00F01D2B25A5430BD03F16043D2B280
:1035100003F5614383F8002330BD00BFBC5C0008A5
:10352000E05C0008985C00080C5D000800E100E029
:1035300014ED00E0104B10B553F82120136823F070
:10354000010313600D4B53F8212002F01F0053B20A
:10355000012202FA00F45B090948203340F82340B5
:10356000084B53F82100084B53F821309A40036868
:1035700023EA0202026010BD985C00080C5D00089E
:1035800000E100E0BC5C0008E05C000838B50D46D6
:103590001C464AB1012A0DD1FFF74CFF0D49B0FB83
:1035A000F1F12846614307E0FFF744FFB0FBF4F177
:1035B000284601E008461946FFF706FF064B0022A1
:1035C00053F825305A6201225A611A6842F001020A
:1035D0001A6038BD40420F00985C00080B69022257
:1035E000434308460021FFF7D1BF0000054B53F8C5
:1035F00020301A6822F001021A601A6922F00102D2
:103600001A617047985C00080020FFF7EFBF0000C8
:1036100010B500210446FFF70DFF074BB0FBF3F098
:1036200020610420FFF7E2FF2046BDE8104004219E
:1036300000220123FFF7AABF40420F001FB5044636
:10364000184A23460A201C21FCF712FE20460021BE
:10365000FFF7F0FE144B40F60652B0FBF3F00021EA
:1036600020612046FFF70CFF104B01A80193104B7F
:10367000214602930F4B039301F02BFB23460A20B4
:103680002B210D4AFCF7F4FD2046042140F604529C
:10369000FFF7F6FE2046042100220123FFF776FF04
:1036A00004B010BD0F34000840420F00DD350008A3
:1036B00009360008F9330008213400080B46097A5E
:1036C000F0B5082902D96FF006007BE05A68C2F312
:1036D0000E02B2F5807F15D007D8082A0DD0092A2E
:1036E0006ED1BDE8F040FFF725BF40F201108242E5
:1036F0000ED0B2F5817F10D062E0DA68BDE8F0400C
:10370000FFF7BEBE1A7BBDE8F0401B69FFF73EBF66
:103710000846BDE8F040FFF769BFD8681D692C4B2B
:10372000C2B253F8213094001E6A0F21A140012A31
:1037300026EA01011962C8BF971E4FF0FF01D5BFED
:103740009E69DE69D700FF00D5BFB940B94026EABF
:10375000010126EA0101C0F30720D4BF9961D961B4
:10376000002833D0411EC9B203299BBF19481A4E05
:103770000021405C8CBF0846715C032A0BD8DFE84F
:1037800002F0020406085D6307E09D6305E0DD6367
:1037900009E01D6407E0012A05DC9D69D200904024
:1037A0002843986105E0023ADD69D2009040284341
:1037B000D8611A6A41F00101A14011431962F0BDBC
:1037C0006FF00100BDE8F04001F0EDB9F0BD00BFC1
:1037D000985C0008045D0008085D000810B5044608
:1037E00086B001A801F042F9BDF80A30C3F30D0319
:1037F000013B0B2B25D8DFE803F00B240610242413
:10380000151F2424241A204601A9FFF793FD1CE06C
:10381000204601A9FFF798FB17E0204601A9FFF712
:103820004DFF12E0204601A900F06AF90DE02046A4
:1038300001A901F035F808E0204601A900F0FAFDE1
:1038400003E06FF0010001F0AEF901A801F0F5F816
:10385000C7E700B595B001F096F9012102460023B3
:103860002620FCF705FD6846FFF74AFD6846FFF78E
:10387000E5FE6846FFF764FB684600F01FFB6846FC
:1038800000F07CFF684600F0C5FD6846FFF7A6FF24
:1038900038B500EB810463690D46186901F0DDFA63
:1038A0006369D86801F032FB6369986801F0D5FA62
:1038B0006369586801F02AFB606901F0DDF90023B3
:1038C00063610C486B1E032B0B4A8CBF50F825001C
:1038D00050F825004FF001038BBF116A516A8340F5
:1038E00083408BBF21EA030321EA0303136253627F
:1038F00038BD00BF705D00080038024038B500EBED
:10390000810463690D465868421C0FD001F0F8FA33
:10391000636929465868072201F0BBFA62690023EF
:10392000938272B662691383D38262B66369D86880
:10393000431C01D001F0E4FA636900221A8038BD0B
:1039400025287FB506D0262806D0272814BF0325B2
:10395000022502E0002500E00125334B53F8254005
:103960002368180721D01A0705D501EB8502526993
:103970004FF6F37018E062689E07039205D501EBDD
:10398000850252694FF6D3600EE0D80705D501EBEA
:10399000850252694FF6CD6006E05A0705D54FF60D
:1039A000CE6001EB850252691080E268160621D5CF
:1039B00018061FD501EB85014A69108B90B1D18A99
:1039C0004B1C11449BB2097F8342D382616011D3A7
:1039D0000026168301F0ECF8009614492A46334677
:1039E00001F01EF8E36823F08003E360E36843F02E
:1039F0004003E360E368590606D523685A0642BFD0
:103A0000E36823F04803E36023689B0609D56468F4
:103A100001F0CEF8E4B2009405492A46002300F0F4
:103A2000FFFF04B070BD00BF7C5D0008050107000A
:103A300006010700154BD2B253F8223030B503F01F
:103A40001F0543F3C403012423F06043AC4023F07B
:103A500003030F4D03F1604355F8222003F5614342
:103A6000C3F88040D568014445F00805D560884218
:103A700006D015682D06FCD510F8015B5560F6E7F9
:103A8000D16841F04001D1601C6030BD645D000828
:103A90007C5D000870B50E461AB100EB81035B69CE
:103AA0009A8200EB86056C69A38A1BB9606801F0F5
:103AB000DAF9A08269698C8AC4B1102C28BF10245D
:103AC000886822461C3101F008FAB0B16B69002207
:103AD000DA829A8AA4B21C83141B9C82074B53F887
:103AE0002620D36843F08803D36070BD486807225E
:103AF0003146BDE8704001F0CCB970BD7C5D000876
:103B00002DE9F0430C7A89B0022C06460D4602D905
:103B10006FF006003FE04B68C3F30E030B2B00F081
:103B2000348110D8082B2DD006D8012B00F05D81F0
:103B3000062B00F0218178E1092B00F08C800A2B04
:103B400000F0298171E140F20312934200F03D81BF
:103B5000B3F5827F08D2B3F5807F00F09E80B3F585
:103B6000817F00F0268160E140F20512934200F06F
:103B70003C81B3F5827F40F23181B3F5837F00F061
:103B80003A8152E100EB8409D9F81470D1F80C8025
:103B900027B16FF0050001F006F884E12C2001F058
:103BA0004EF80546C9F81400002800F07C81078013
:103BB000631E9F48032B9F4A8BBF50F8240050F888
:103BC0002400116A516A4FF001038BBF8340834088
:103BD0000B430B438CBF13625362974B4FF0FF3282
:103BE00053F8247018F0020F4FF00003FB606A6076
:103BF000AA60EA602A61AB822B83EB8211D020207D
:103C000001F011F9431C686000F0498101F018F9D6
:103C1000A860013000F0438168682146072201F066
:103C200038F918F0010F00F01381202001F0FBF8A3
:103C3000431CE86000F0338101F002F92861013093
:103C400000F02D81E86801F019F9FB68688343F002
:103C50002403FB60FCE000EB84035B690BB3774B50
:103C6000012253F8241001F01F004BB282405B097F
:103C70007348203340F82320002213460B20FCF722
:103C8000F7FA6D4B304653F824202146D36823F4CD
:103C90000053D360FFF732FE01E100EB84035B6960
:103CA00013B96FF0040076E7084601A901F04AF85D
:103CB000614B53F82450EB6823F40053EB609DF8FC
:103CC0000830EA68082B9DF8093004D14E2B02D049
:103CD00042F4805201E022F480524E2BEA600BD075
:103CE000EA684F2B42F48062EA60EB680CBF43F451
:103CF000007323F4007302E0EB6823F48063EB604D
:103D00009DF80A30013C023BDBB20D2B96BF4D4AB9
:103D10000021D15C2A69032C22F440522A612B69CC
:103D2000304643EA01332B61474B03A904938CBF10
:103D3000032302230593FFF7FDFA069A192303FBD9
:103D400002F1019B9B00B1FBF3F26423B2FBF3F1A0
:103D500003FB1123DB0003F119023223B2FBF3F35F
:103D600043EA0113AB60EB6843F40453EB606B6907
:103D700043F001036B6196E000EB84067369002B4E
:103D80008FD02146FFF7BAFD8DE000EB8404636914
:103D90002BB15B680BE000EB8404636933B96FF00F
:103DA000040000F000FF4FF0FF3300E0DB68EB6041
:103DB00079E000EB8404646924B96FF0040000F03A
:103DC000F2FE00E02488EC606DE000EB840463699F
:103DD000002B3FF466AF00221A8064E02D201B49BF
:103DE00022460023FCF744FA5DE0304621462A696A
:103DF000FFF750FE57E00B6900EB840465698DF80E
:103E00000C306B8B1BB9E86801F038F86883636984
:103E10005A8B002A47D01869012203A901F04AF8F9
:103E20006269538B013B53833DE06FF00100B2E6C2
:103E3000705D0008003802407C5D0008645D000889
:103E400000E100E0565D000801810300353A0008FA
:103E5000FB680A2043F40053FB60144B144A53F8E8
:103E6000244033462146FCF703FAE1B201F01F007B
:103E700001224BB282400F485C09002B40F82420FD
:103E800005DA0D4B01F00F01D0225A540BE003F17B
:103E9000604303F56143D02283F8002303E03046FA
:103EA0002146FFF7F5FC09B0BDE8F083645D00082A
:103EB0004139000800E100E014ED00E00023436117
:103EC0008361C361704772B600F07F0000F18050DB
:103ED00000F5B85080000388194023F4E0434A40BD
:103EE00023F070031343038062B67047154B30B55F
:103EF00020F47F6424F00F049C4204BFC0F30B0441
:103F0000001921F47F6424F00F049C4208BFC1F320
:103F10000B0302F1010208BFC918520800239342A3
:103F20000ED031F81340074D20F8134020F47F6481
:103F300024F00F04AC420CBF023002310133EEE733
:103F400030BD00BF0060004070B500EB8100C66B63
:103F5000090130687568C36801F180415D1B3389D0
:103F600001F5C0419D42A8BF1D464D600C6800F0A0
:103F7000FCFD04F18044716804F5C04401442A4604
:103F80002046BDE87040FFF7B1BF00002DE9F043C7
:103F90008F4C89B0B4F844300D469BB25A0519D500
:103FA000B4F840308A6A9BB243F40063A4F840300E
:103FB0008023A4F84C30874B03A80493FF23059378
:103FC00001230693039200F01FFDB4F8443023F45C
:103FD000806333E01F0519D5B4F84020160515D5C8
:103FE000B4F840308A6A23F400631B041B0CA4F865
:103FF0004030FF230593784B03A80493039200F00D
:1040000003FDB4F8443023F4006317E0D8041AD554
:104010006F4CAA6AB4F8403003A89BB243F4006323
:10402000A4F84030FF23059303F10813049303928F
:1040300000F0EAFCB4F8443023F480531B041B0C5A
:10404000A4F84430C0E0190440F1BE80604EB6F8D8
:10405000444014F00F0421D133881A051ED55F4B5C
:104060005F4F0493AB6A05940393B96806A801F106
:10407000804101F5C0410422FFF738FFBB68594970
:1040800007A819440422FFF731FF03A800F0BCFC85
:10409000338823F070031B051B0D338004F1805619
:1040A00006F5B856B60033881B0647D595F84C2060
:1040B00005EB8403DF6B6AB1230103F1804303F551
:1040C000C0435B6833B9424942F08002A1F84C20FA
:1040D00085F84C30BB7A33B3230103F1804303F5F9
:1040E000C0435A687B6813443A687B60D268934245
:1040F00011D3204630212022FFF7E5FE3B68A86A55
:10410000DA683949009244F0800200F089FC00230B
:104110003B60BB720CE028462146FFF715FF3021BB
:1041200020460A4602E0204630212022FFF7CBFE3F
:10413000338823F4E14323F070033380B6F9003071
:10414000002B41DA4FEA041805EB840308F180489C
:10415000DF6A08F5C048D8F80C303868C3F309099D
:1041600000F003FD3B68D8F80810DB6801F18041DE
:10417000184401F5C0414A46FFF7B8FE33883A6853
:1041800023F070031B051B0D3380D36820464B447E
:10419000D3607A684FF44051934202D23B894B4539
:1041A0000FD94FF40052FFF78EFE3B68A86ADA6819
:1041B0000E490092224600F033FC00233B60BB72A4
:1041C00002E00A46FFF77FFE09B0BDE8F08300BFBA
:1041D000005C004005010800060108000801080015
:1041E00000600040046000400400084003000840F4
:1041F0008B6810B513F0800F03F07F0300EB830092
:1042000014BFC46BC46A14B96FF0040003E0A37A4E
:104210002BB14FF0FF3000F0C6FC002010BDCB6882
:104220000120236010BD0000F7B501F07F0311F0FD
:10423000800706460D4600EB830302D0DC6B44B9D1
:1042400001E0DC6A4CB96FF0040000F0ACFC002027
:104250001DE008462022302104E008464FF40052B9
:104260004FF44051FFF72FFE23686BB16FF06802E7
:1042700000920849084AB06A002F08BF11462A4632
:1042800000F0B2FB002323600023A372012003B0DF
:10429000F0BD00BF0400084003000840F8B5044624
:1042A0000E46FFF7C1FF08B316F08007304606F050
:1042B0007F0507D030210022FFF705FE04EB8503C0
:1042C000D86B07E04FF440513A46FFF7FCFD04EB92
:1042D0008503D86A00F0D0FC2FB10E3504EB8504BD
:1042E00000236360F8BD04EB8504E762F8BD10B5F8
:1042F0000C46FFF799FF60B123062046BDE8104049
:1043000047BF302110224FF440514FF48052FFF745
:10431000DABD10BD10B50C46FFF786FF60B123066D
:104320002046BDE8104047BF302120224FF44051C5
:104330004FF40052FFF7C7BD10BD10F0800F00F022
:104340007F0000F1805000F5B8504FEA80000088EF
:1043500003D000F03000102803E000F44050B0F526
:10436000805F14BF002001207047000038B5234B48
:10437000234C5A6A816242F400025A62B4F8402027
:10438000054622F002021204120CA4F8402001207B
:1043900000F02AFCB4F84020002322F001021204AD
:1043A000120CA4F84020174AA4F84430A4F8503066
:1043B0000021154B116051609160D16010329A421A
:1043C000F6D1124A2B460A201421FBF751FF104B5D
:1043D0004FF480121A60D02283F81423084AB2F8EE
:1043E00040309BB243F41C43A2F8403002F5244213
:1043F000536843F00103536038BD00BF00380240EA
:10440000005C004000600040406000408D3F0008BC
:1044100000E100E04FF0FF338362002380F84C306E
:10442000C362C3630363036443634364836383645A
:10443000704700002DE9F0478E680446FF2E0F46B6
:104440005AD14B68C3F30E03092B14D007D8082B9D
:1044500040F03F81BDE8F0470968FFF787BFB3F53B
:10446000807F3DD040F20112934240F0328101231F
:10447000CB60BDE8F0879B4A0B205368142123F0E2
:1044800001035360984B4FF48012C3F88020002240
:104490001346FBF7EDFE04F12806002556F8043F0D
:1044A0001BB120462946FFF7F9FE336923B12046A8
:1044B00045F08001FFF7F2FE0135042DEED14FF0FB
:1044C000FF33A362894B0022A3F84C200322A3F8F8
:1044D0004020874A536A23F400035362BDE8F08703
:1044E000CB681BB180F84C30BDE8F0877F4B802251
:1044F000A3F84C20BDE8F08706F07F05032D02D914
:104500006FF00600E7E04B68C3F30E03082B26D0DC
:1045100009D8042B00F0C180062B00F09780032BF4
:1045200040F0D780A1E0B3F5817F00F0948007D8F8
:10453000092B40F0CE803146BDE8F047FFF7AEBE14
:1045400040F20312934200F08B80B3F5827F40F07B
:10455000C0803046FFF7F1FEF860BDE8F08700EB61
:10456000850316F0800814BFDB6BDB6AD1F80CA062
:104570000F6913B16FF00500ADE000F1380248306B
:1045800052F8041F09B109890B4452F8101C09B1F3
:1045900009890B448242F3D10C2003F1200900F079
:1045A0004EFB002800F09B8004EB8504B8F1000F5F
:1045B00001D0E06300E0E0625FFA8AFA0023BAF11A
:1045C000010F036003818372A9B209D005D3BAF148
:1045D000030F07D141F4C06104E041F4007101E030
:1045E00041F480612B0103F1804303F5C043B8F12E
:1045F000000F04D00022C3F800905A6010E03E2F54
:1046000085BF07F11F0252097A1C02F1FF3295BFE4
:1046100052089202920242F40042C3F80890DA6013
:1046200005F1805505F5B855AD0007812980304664
:10463000B8F1000F02D07021202203E04FF4E041D6
:104640004FF40052BDE8F047FFF73DBC3146BDE8EE
:10465000F047FFF7E9BD3146BDE8F047FFF747BE39
:104660003146BDE8F047FFF755BE00EB8504E46A2C
:10467000FFF7BEFD98B3236800221A735A739A732A
:10468000DA733B6901264FF4405128466360A672F5
:104690000A46FFF718FC30461DE000EB8503DE6B91
:1046A000FFF7A6FDD8B10023736020462946FFF727
:1046B0004BFC30210A462846FFF705FC3368726838
:1046C000DB689A4202D33B61BDE8F0870120B072FB
:1046D00001E06FF00100BDE8F04700F064BABDE80A
:1046E000F08700BF0000014000E100E0005C0040F6
:1046F0000038024073B5B0F1230618BF012606F159
:10470000080351F823401B4B53F82650AB6813F0B5
:10471000E00F1FBFAB68AB68AB68AB681CBFAB6892
:10472000AB68AB689A070DD5A3685A1E002BA26030
:1047300008DD206800F019FA2368A268DB689B1A7C
:10474000C35CEB60AB68DB0712D5206800F00DFAA4
:10475000EA68E368C254E16823680131E160DA681D
:104760008A4205D1009260680349324600F058F948
:1047700002B070BD8C5D000803000C400023036292
:10478000436270472DE9F04100EB8108D8F82070B2
:1047900005460C46164617B16FF0050020E01020C4
:1047A00000F04DFA10B96FF0C80019E0274BC8F8B7
:1047B0002000076053F82400036823F040030360DF
:1047C0003CB1012C0BD1224B596A41F48041596212
:1047D0000AE01F4A136A43F48053136204E01D4841
:1047E000BDE8F04100F0DFB90223836020230660BA
:1047F0004360C269184B22F40062C26102681C5D0A
:1048000042F04002214602602B46144A0A20FBF780
:104810002FFD63B2002BBBBF114A04F00F0103F15F
:1048200060425218ABBF02F56142D021D02111760F
:10483000A8BF82F8001304F01F04012209495B0994
:10484000A24041F82320BDE8F08100BF8C5D000844
:104850000038024070FEFFFF885D0008F546000842
:10486000FCEC00E000E100E00B7A10B503F1080475
:1048700050F82400CA6828B96FF00400BDE8104061
:1048800000F091B90548D2B250F82330DA609A6846
:10489000D207FCD5DB68DBB2CB6010BD8C5D0008B5
:1048A00010B50C7A0A46012C02D96FF006001BE005
:1048B0004B68C3F30E03B3F5807F0FD004D8082BE9
:1048C00006D0092B14D00DE0B3F5817F0AD810BDB6
:1048D0002146BDE81040D268FFF754BFBDE8104044
:1048E000FFF7C2BF6FF00100BDE8104000F05BB9F8
:1048F00010BD4FF00053F0B51C68D4F81CE0236ADB
:1049000073451BD014255D4304F1280677197559AA
:10491000854201D0851C09D17D688D4201D04E1C95
:1049200004D1BD6895420CD0951C0AD0666A5D1C06
:10493000B5424FF0000338BF2B46E1E74FF0FF30A0
:10494000F0BD1846F0BD2DE9F04104460E4686B094
:104950004FF00058D8F8001014270B6A9C422FD053
:1049600007FB04F5283129443A4601A800F0B4FCBD
:10497000D8F80030002C03F12801D7BF5B6AA5F1FD
:1049800014037B43143B68181422194400F0A4FC60
:104990004FF000531A68002CDEBF556A14235D43A4
:1049A00002F12800143D284401A9142200F094FCCF
:1049B000002CDEBF4FF000531B685C6A013CC7E768
:1049C00007FB04113A463046283100F085FCD8F840
:1049D00000203046136A516A01338B4228BF0023FE
:1049E000136206B0BDE8F0817FB50493089B039283
:1049F0000022019002910593142001A91346FBF7B0
:104A000037FC07B05DF804FB10B54FF000535C684D
:104A100000220146A446BDE810401420134660471A
:104A20007FB50493089B019001A80291039205931E
:104A3000FFF7EAFF07B05DF804FB436810B51A04FE
:104A4000044612D523F40043436000F0A7F820B1D8
:104A500001280AD000F0A2F8206100222146BDE81A
:104A6000104014201346FBF703BC10BD10B50446DC
:104A7000002000F098F84FF000531B68DA691B6AB9
:104A80009A4207D16FF0010115204FF0FF320B461B
:104A9000FBF7EEFB4FF000531B682146186AFFF747
:104AA00052FF6368B3F5004F03D12046FFF7C5FFFF
:104AB000DEE710BD10B5044600222146134616203D
:104AC000FBF7D6FB94E80300A26821F40041FFF74E
:104AD00010FF2146BDE81040FFF735BF7FB50493B6
:104AE000089B019001A8029103920593FFF7E2FF52
:104AF00007B05DF804FB7FB50493089B019001A803
:104B0000029103920593FFF7D5FF0598002801DA7B
:104B100000F049F8049807B05DF804FB7FB50493F2
:104B2000089B019001A8059302910392FFF7C2FF31
:104B3000049B013302D1059800F035F8049807B0C2
:104B40005DF804FB7FB50493089B019001A80291D6
:104B500003920593FFF7AEFF0598002801DA00F0F5
:104B600022F8059807B05DF804FB83681844704785
:104B700007B501460020034601AAFBF779FB01981F
:104B800003B05DF804FB07B50022012001A913461C
:104B9000FBF76EFB019803B05DF804FB4FF0005388
:104BA0001B68186870474FF000531B681860704707
:104BB00013B500224FF000535C68012001A9134691
:104BC000A047019802B010BD0022014613460720FD
:104BD000FBF74EBB07B5694600F06FF86846FFF774
:104BE000F3FF03B05DF804FB07B5694600F05FF81A
:104BF0006846FFF7E9FF03B05DF804FB00210920D8
:104C00000A460B46FBF734BB10B54FF00054A468BE
:104C100064682468A446BDE8104060470FB407B537
:104C200004A951F8040B4FF0005301919B685B6895
:104C30005B68984703B05DF804EB04B0704710B5AB
:104C400001466A464FF00053986804681868E368A4
:104C50000430BDE81040184730B50A4605466B469B
:104C60004FF0005188680468086864692946A446C2
:104C7000BDE83040043060474FF000539A68014669
:104C8000126818689369043018474FF000539B6806
:104C90009B681B6818474FF000539B689B685B68D4
:104CA00018474FF000539B689B689B6818474FF06C
:104CB00000539B689B68DB6818474FF000539B6864
:104CC0009B681B6918470022014613460C20FBF71E
:104CD000CFBA03460A460F2019460023FBF7C8BA8D
:104CE00010B54FF000535C680021A446BDE81040A9
:104CF0000D200A460B46604710B54FF000535C6824
:104D00000021A446BDE810400E200A460B4660472D
:104D100007B54FF0FF3302AA42F8043D27200121D6
:104D20000023FBF7A5FA019803B05DF804FB0368C4
:104D3000CB60437902791B0243EA02438279134331
:104D40000B617047C3680B60438A0B7103691B0AD0
:104D50004B7103698B71704713B50446FFF7D8FF99
:104D60000023009302492246FFF7B8FE02B010BDAF
:104D70000481070037B505460024FFF7C9FF2A461E
:104D8000234600940549FFF7C9FE21460246234603
:104D9000262003B0BDE83040FBF76ABA0B8007005D
:104DA00037B50C460546FFF7B3FF002300930549CE
:104DB0002A462346FFF7B2FE013018BF012003B098
:104DC00030BD00BF0880070010B5044686B0084615
:104DD00001A9FFF7ACFF054B03940293FFF798FF7F
:104DE000019001A8FFF766FE06B010BD0081070024
:104DF0001FB5044604AA4FF0FF3342F8043D2720B4
:104E000001210023FBF734FA0023009303980349A0
:104E10002246FFF770FE04B010BD00BF0181030001
:104E20000020FFF7E5BF07B5002302A9024641F8BD
:104E3000043D1720FBF71CFA019803B05DF804FB52
:104E400007B5002302AA014642F8043D1820FBF7EB
:104E50000FFA019803B05DF804FB002201461346E7
:104E60001920FBF705BA07B50023014601AA1A204D
:104E7000FBF7FEF9019803B05DF804FB07B50023CA
:104E8000014601AA1B20FBF7F3F9019803B05DF876
:104E900004FB30B505460C46134629462246BDE8BC
:104EA00030401C20FBF7E4B90022014613461D20C8
:104EB000FBF7DEB970B50D46144606460020FFF735
:104EC00072FE31462A4623461E20FBF7D1F9FFF732
:104ED00065FEB0FA80F0400970BD70B50D4614460D
:104EE00006460020FFF75FFE31462A4623461F2074
:104EF000FBF7BEF9FFF752FEB0FA80F0400970BD33
:104F00000022014613462220FBF7B2B900220146D7
:104F100013462320FBF7ACB907B54FF0FF3302AAC5
:104F200042F8043D272001210023FBF7A1F9019855
:104F300003B05DF804FB000073B50C461646054649
:104F4000FFF7EAFF009603492A462346FFF7C6FD0E
:104F500002B070BD0880010007B54FF0FF3302AA10
:104F600042F8043D272001210023FBF781F9019835
:104F700003B05DF804FB000037B50C460546FFF7AB
:104F8000EBFF0023009304492A462346FFF7DAFD8E
:104F9000C043C00F03B030BD0880040073B50C4699
:104FA00016460546FFF7D8FF009603492A462346D2
:104FB000FFF794FD02B070BD00810400F7B50C4608
:104FC00015461F460646FFF7C7FF009703493246BE
:104FD00044EA0523FFF782FD03B0F0BD028104001F
:104FE00030B52F4891B0FFF7C3FD072209200221F9
:104FF000FFF7A2FF02210020FFF7D2FE4FF4E133BA
:10500000059308238DF818304E2305A98DF8193023
:10501000002001238DF81A30FFF7D6FE0020FFF79D
:105020009BFE0020FFF7A6FE10AC4FF0FF3344F8C4
:10503000403D002127200B462246FBF719F9009836
:10504000431C05D04FF000531D68FFF7F9FE28619F
:10505000FFF7E6FE1349B0FBF1F11348FFF7DEFD61
:1050600005A800F065F8C820FFF7B4FDFFF7C6FDFE
:105070002046FFF7FBFCBDF80630C3F30D03132BEE
:1050800006D0222B08D06FF00100FFF78CFD03E063
:1050900005A8214600F0A4F82046FFF7CEFCE7E77C
:1050A000305D000840420F00B45D000870B510F894
:1050B000313000EBC10604460D46B07813B1FDF760
:1050C00083FF01E0FDF774FF14F8353083F001032E
:1050D00004F835307368002BC4BF03F1FF337360ED
:1050E00070BD000070B50E460C4600256378E9B22D
:1050F000022B11D16368002B03DD3046FFF7D6FF8A
:105100000AE001236370094B1A6822F001021A6059
:105110001A6922F001021A6108340DB90125E5E788
:10512000024A136923F00103136170BD00040040BB
:1051300070B5044600251123102084F82630294636
:10514000A07725776577FDF722FFA07FFDF73CFF6D
:10515000294694F8260084F8245084F82550FDF759
:1051600016FF94F82600FDF72FFF04210120FFF71A
:1051700003FF29462A462B460120FFF71FFF04F1B3
:105180001C030A201D21024ABDE87040FBF770B8DD
:10519000E5500008022938B515461FD800EBC104B8
:1051A000637F93421AD0012A13D00CD3022A14D160
:1051B000062323621C30FFF779FF0120002119220A
:1051C000FFF7ECFE09E0A07FFDF7FEFE002323774A
:1051D00003E0A07FFDF7ECFE2577657738BD000082
:1051E0007FB54B680446C3F30E03012B49D0B3F5DA
:1051F000807F63D10B7A032B64D8DFE803F0292981
:10520000020200253048FFF709FD30492A462B46A7
:1052100000956068FFF782FC2D492A462B4606461A
:1052200000956068FFF77AFC60613046FFF708FE82
:10523000E0606069FFF704FE01262061294660698D
:1052400013222676FFF725FE20462946324632E015
:10525000037E002B36D01F48FFF7E0FC6069FFF7A4
:1052600023FEE068FFF7F9FD2069FFF7F6FD4FF038
:10527000FF3300216361E3602361217620460A4603
:1052800019E00E690025B5420DD00DF10F01012284
:105290002069FFF722FEE0680DF10F010122FFF700
:1052A00009FE0135EFE7606900211322FFF7F1FDE8
:1052B000204600210222FFF76DFF03E06FF001009E
:1052C000FFF771FC04B070BDE55D00080B801400B1
:1052D0000A801400F25D0008844641EA000313F0DE
:1052E000030349D1403A23D30B6803604B68436002
:1052F0008B688360CB68C3600B6903614B69436152
:105300008B698361CB69C3610B6A03624B6A436239
:105310008B6A8362CB6AC3620B6B03634B6B436321
:105320008B6B8363CB6BC36340304031403ADBD23D
:1053300030320BD30B6803604B6843608B6883602B
:10534000CB68C36010301031103AF3D20C3205D361
:1053500051F8043B40F8043B043AF9D2043208D037
:10536000D2071CBF11F8013B00F8013B01D30B88A9
:1053700003806046704700BF082A13D38B07B1D063
:1053800010F00303AED0C3F10403D21ADB071CBF35
:1053900011F8013B00F8013BA4D331F8023B20F89F
:1053A000023B9FE7043AD9D3013A11F8013B00F8D8
:1053B000013BF9D20B7803704B7843708B78837084
:1053C000604670478842F0B50DD98B1898420AD2D2
:1053D0008118002A54D09A1A13F8014D934201F80B
:1053E000014DF9D1F0BD0F2A48D940EA01039B07CE
:1053F00047D1154600F1100401F1100353F8106C69
:10540000103D44F8106C53F80C6C0F2D44F80C6CE4
:1054100053F8086C04F1100444F8186C53F8046C49
:1054200003F1100344F8146CE8D8A2F1100323F040
:105430000F0302F00F0E1033BEF1030F19440344A3
:1054400021D90E4674461D1F56F8047B043C032CDC
:1054500045F8047FF8D8AEF1040424F003040434C2
:105460002344214402F0030252B1013B0A4411F8E3
:10547000014B914203F8014FF9D1F0BD0346F3E728
:10548000F0BD0346F1E77246EEE700BF70B4840753
:1054900046D0541E002A41D0CDB2034602E0621E1F
:1054A000E4B3144603F8015B9A07F8D1032C2ED914
:1054B000CDB245EA05250F2C45EA054519D9264602
:1054C00003F11002103E0F2E42F8105C42F80C5C03
:1054D00042F8085C42F8045C02F11002F2D8A4F130
:1054E000100222F00F0204F00F041032032C1344B8
:1054F0000DD91E462246043A032A46F8045BFAD820
:10550000221F22F003020432134404F003042CB1DE
:10551000C9B21C4403F8011BA342FBD170BC704705
:1055200014460346C2E700BF80EA0102844612F037
:10553000030F4FD111F0030F32D14DF8044D11F08C
:10554000040F51F8043B0BD0A3F101329A4312F03F
:10555000803F04BF4CF8043B51F8043B16D100BF18
:1055600051F8044BA3F101329A4312F0803FA4F1A9
:1055700001320BD14CF8043BA24312F0803F04BF30
:1055800051F8043B4CF8044BEAD023460CF8013B9D
:1055900013F0FF0F4FEA3323F8D15DF8044B704747
:1055A00011F0010F06D011F8012B0CF8012B002A85
:1055B00008BF704711F0020FBFD031F8022B12F074
:1055C000FF0F16BF2CF8022B8CF8002012F47F4F2F
:1055D000B3D1704711F8012B0CF8012B002AF9D137
:1055E000704700BF20F0030110F00300C0F100007D
:1055F00051F8043B00F1040C4FEACC0C6FF00002B0
:105600001CBF22FA0CF213434FF0010C4CEA0C2C95
:105610004CEA0C4CA3EB0C0222EA030212EACC1275
:1056200004BF51F8043B0430F4D0C2F1000102EA97
:105630000102B2FA82F2C2F11F0200EBD2007047FF
:1056400048415244204641554C543A200056656327
:10565000746F72207461626C65207265616420668B
:1056600061756C742061742025232E3038780A000F
:105670005359532063616C6C207768696C652064B2
:10568000697361626C656420696E746572727570AD
:1056900074732061742025232E3038780A00476502
:1056A0006E6572616C2068617264206661756C74ED
:1056B0002061742025232E3038780A004D454D2076
:1056C0004D414E4147453A2000537461636B696E0A
:1056D00067206661696C656400556E737461636B05
:1056E000696E67206661696C65640044617461205D
:1056F0006163636573732076696F6C6174696F6E43
:1057000000496E737472756374696F6E20616363B0
:105710006573732076696F6C6174696F6E002061C8
:10572000742025232E3038780A2C2063616C6C6538
:10573000722025232E30387800425553204641559B
:105740004C543A2000537461636B696E6720666144
:10575000696C65642061742025232E3038780A0036
:10576000556E737461636B696E67206661696C6501
:10577000642061742025232E3038780A0044617437
:105780006120627573206572726F722061742025CA
:10579000232E3038782C2063616C6C6572202523B1
:1057A0002E3038780A00496E737472756374696FAD
:1057B0006E20627573206572726F7220617420258D
:1057C000232E3038782C2063616C6C657220252381
:1057D0002E3038780A005553414745204641554CF4
:1057E000543A20004469766973696F6E20627920AB
:1057F0007A65726F00556E616C69676E65642061D1
:105800006363657373004E6F20636F70726F6365BF
:1058100073736F7220666F756E6400556E64656693
:10582000696E656420696E737472756374696F6EF6
:1058300000496E76616C6964207374617465000060
:10584000525800084B65726E656C2070616E69631A
:105850000A005245784F5320302E352E32006D65A8
:105860006D6F72792064756D7020307825303878CE
:105870002D3078253038780A003078253038783A5D
:1058800020002530325820001508000800000000D4
:105890000000000041080008C90800089509000838
:1058A0005761726E696E673A20697271207665631E
:1058B000746F7220256420737475622063616C6C50
:1058C00065640A0000000000090B000800000000E9
:1058D000FFFFFFFF5761726E696E673A2061626E6B
:1058E0006F726D616C2070726F6365737320746585
:1058F000726D696E6174696F6E3A2025730A0025B6
:105900002D32302E32307320002530336420202099
:105910002020002534622020002534622000202031
:1059200020202021212144414D414745442121216E
:1059300020202020200020253362282530326429B1
:10594000202020002533622F253362282530326441
:105950002920002533643A253032642E2530336403
:10596000000A202020206E616D652020202020204C
:1059700020202020207072696F7269747920207352
:105980007461636B202073697A65202020757365CC
:1059900064202020202020206672656520202020A1
:1059A00020202020757074696D650A002D2D2D2D25
:1059B0002D2D2D2D2D2D2D2D2D2D2D2D2D2D2D2D17
:1059C0002D2D2D2D2D2D2D2D2D2D2D2D2D2D2D2D07
:1059D0002D2D2D2D2D2D2D2D2D2D2D2D2D2D2D2DF7
:1059E0002D2D2D2D2D2D2D2D2D2D2D2D2D2D2D2DE7
:1059F0002D2D2D2D2D0A00746F74616C20256420CF
:105A000070726F636573736573730A002523303892
:105A1000582020202020202020202020202020204E
:105A2000202020202020202020200025336228252F
:105A3000303264292020002533622F253362282547
:105A40003032642900252D32302E32307320202050
:105A5000202020202020005761726E696E673A2056
:105A600048504554207374617274207374756220B9
:105A700063616C6C65640A005761726E696E673AA7
:105A800020485045542073746F70207374756220E1
:105A900063616C6C65640A005761726E696E673A87
:105AA000204850455420656C6170736564207374A0
:105AB00075622063616C6C65640A005761726E697F
:105AC0006E673A20485045542074696D656F75744F
:105AD000206F6E20465245452052554E206D6F6412
