:020000042000DA
:10000000F0B585B0061C0D1C0192BFF34F8FBFF3F6
:100010006F8F294CE368DB0702D5C046C046F8E77E
:1000200023691B0639D5254B6360254B636034E09B
:10003000E268214BD207FBD42022D968114200D0BC
:10004000DA60022223699343236180231B01F318A2
:1000500003930122019B043604330193043B1B6884
:10006000154F029323691343029A2361120C331F25
:100070001A8000F029F800281CD101223B691343A3
:100080003B616B461B89338000F01EF8002811D1BC
:10009000039B9E42DDD10B4BED18002D09D00222AF
:1000A000236913432361666123693E32134323614D
:1000B000BEE7281C05B0F0BD0020024023016745C3
:1000C000AB89EFCD00FEFFFF074BDA68D207FBD408
:1000D0002022D968114200D0DA6001211A6900207B
:0C00E0008A431A617047C04600200240AD
:0400000520000000D7
:00000001FF
